MPASM

CCS PCM C Compiler, Version 4.104, 5967               19-Ago-14 20:40

               Filename: Z:\home\johnny\proyectos\control de victor\PIC\esclavo.lst

               ROM used: 193 words (9%)
                         Largest free fragment is 1855
               RAM used: 8 (6%) at main() level
                         12 (9%) worst case
               Stack:    1 locations

0000 3000       00001 MOVLW  00
0001 008A       00002 MOVWF  0A
0002 2854       00003 GOTO   054
0003 0000       00004 NOP
                00005 .................... #include <16F870.h> //Se incluye la librería del dispositivo 
                00006 .................... //////// Standard Header file for the PIC16F870 device //////////////// 
                00007 .................... #device PIC16F870 
                00256 .................... #list 
                00257 ....................  
                00258 .................... #fuses XT, NOWDT /*Aqui se configura tales como el perro guardian y, el tipo de reloj*/ 
                00259 .................... #use delay (clock=4M) /*Configuración de la velocidad del reloj*/ 
0004 3029       00260 MOVLW  29
0005 0084       00261 MOVWF  04
0006 0800       00262 MOVF   00,W
0007 1903       00263 BTFSC  03.2
0008 2817       00264 GOTO   017
0009 3001       00265 MOVLW  01
000A 00A1       00266 MOVWF  21
000B 01A0       00267 CLRF   20
000C 0BA0       00268 DECFSZ 20,F
000D 280C       00269 GOTO   00C
000E 0BA1       00270 DECFSZ 21,F
000F 280B       00271 GOTO   00B
0010 304A       00272 MOVLW  4A
0011 00A0       00273 MOVWF  20
0012 0BA0       00274 DECFSZ 20,F
0013 2812       00275 GOTO   012
0014 2815       00276 GOTO   015
0015 0B80       00277 DECFSZ 00,F
0016 2809       00278 GOTO   009
0017 0008       00279 RETURN
0041 3012       00280 MOVLW  12
0042 02AB       00281 SUBWF  2B,F
0043 1C03       00282 BTFSS  03.0
0044 2853       00283 GOTO   053
0045 302B       00284 MOVLW  2B
0046 0084       00285 MOVWF  04
0047 30FC       00286 MOVLW  FC
0048 0580       00287 ANDWF  00,F
0049 1003       00288 BCF    03.0
004A 0C80       00289 RRF    00,F
004B 0C80       00290 RRF    00,F
004C 0800       00291 MOVF   00,W
004D 1903       00292 BTFSC  03.2
004E 2853       00293 GOTO   053
004F 2851       00294 GOTO   051
0050 0000       00295 NOP
0051 0B80       00296 DECFSZ 00,F
0052 2850       00297 GOTO   050
0053 0008       00298 RETURN
                00299 ....................  
                00300 .................... #byte port_a =0x05 
                00301 .................... #byte port_b =0x06  
                00302 .................... #byte entrada =0xff 
                00303 .................... #byte salida =0x00 
                00304 .................... #byte apagado =0x00 
                00305 ....................  
                00306 .................... #use I2C(SLAVE, SDA=PIN_C4, FAST, SCL=PIN_C3, ADDRESS=0xa0, NOFORCE_SW) 
0018 3008       00307 MOVLW  08
0019 00A9       00308 MOVWF  29
001A 15A4       00309 BSF    24.3
001B 0824       00310 MOVF   24,W
001C 1683       00311 BSF    03.5
001D 0087       00312 MOVWF  07
001E 1283       00313 BCF    03.5
001F 1624       00314 BSF    24.4
0020 0824       00315 MOVF   24,W
0021 1683       00316 BSF    03.5
0022 0087       00317 MOVWF  07
0023 1283       00318 BCF    03.5
0024 1987       00319 BTFSC  07.3
0025 2824       00320 GOTO   024
0026 1D87       00321 BTFSS  07.3
0027 2826       00322 GOTO   026
0028 1A07       00323 BTFSC  07.4
0029 1403       00324 BSF    03.0
002A 1E07       00325 BTFSS  07.4
002B 1003       00326 BCF    03.0
002C 0DA1       00327 RLF    21,F
002D 0BA9       00328 DECFSZ 29,F
002E 2824       00329 GOTO   024
002F 1987       00330 BTFSC  07.3
0030 282F       00331 GOTO   02F
0031 1224       00332 BCF    24.4
0032 0824       00333 MOVF   24,W
0033 1683       00334 BSF    03.5
0034 0087       00335 MOVWF  07
0035 1283       00336 BCF    03.5
0036 1207       00337 BCF    07.4
0037 1D87       00338 BTFSS  07.3
0038 2837       00339 GOTO   037
0039 0000       00340 NOP
003A 11A4       00341 BCF    24.3
003B 0824       00342 MOVF   24,W
003C 1683       00343 BSF    03.5
003D 0087       00344 MOVWF  07
003E 1283       00345 BCF    03.5
003F 1187       00346 BCF    07.3
0040 2884       00347 GOTO   084 (RETURN)
                00348 ....................  
                00349 .................... void main(){ 
0054 0184       00350 CLRF   04
0055 301F       00351 MOVLW  1F
0056 0583       00352 ANDWF  03,F
0057 1683       00353 BSF    03.5
0058 141F       00354 BSF    1F.0
0059 149F       00355 BSF    1F.1
005A 151F       00356 BSF    1F.2
005B 119F       00357 BCF    1F.3
                00358 .................... 	set_tris_b(salida); 
005F 0800       00359 MOVF   00,W
0060 1683       00360 BSF    03.5
0061 0086       00361 MOVWF  06
                00362 .................... 	unsigned long T1 =1500; ; 
0062 3005       00363 MOVLW  05
0063 1283       00364 BCF    03.5
0064 00A6       00365 MOVWF  26
0065 30DC       00366 MOVLW  DC
0066 00A5       00367 MOVWF  25
                00368 .................... 	int i; 
                00369 .................... 	output_bit(pin_b2, 1); 
0067 1506       00370 BSF    06.2
0068 1683       00371 BSF    03.5
0069 1106       00372 BCF    06.2
                00373 .................... 	delay_ms(1000); 
006A 3004       00374 MOVLW  04
006B 1283       00375 BCF    03.5
006C 00A8       00376 MOVWF  28
006D 30FA       00377 MOVLW  FA
006E 00A9       00378 MOVWF  29
006F 2004       00379 CALL   004
0070 0BA8       00380 DECFSZ 28,F
0071 286D       00381 GOTO   06D
                00382 .................... 	output_bit(pin_b2, 0); 
0072 1106       00383 BCF    06.2
0073 1683       00384 BSF    03.5
0074 1106       00385 BCF    06.2
                00386 .................... 	delay_ms(1000);  
0075 3004       00387 MOVLW  04
0076 1283       00388 BCF    03.5
0077 00A8       00389 MOVWF  28
0078 30FA       00390 MOVLW  FA
0079 00A9       00391 MOVWF  29
007A 2004       00392 CALL   004
007B 0BA8       00393 DECFSZ 28,F
007C 2878       00394 GOTO   078
                00395 .................... 	output_bit(pin_b2, 1); 
007D 1506       00396 BSF    06.2
007E 1683       00397 BSF    03.5
007F 1106       00398 BCF    06.2
                00399 .................... 	while(true){ 
                00400 .................... 		T1=i2c_read(); 
0080 3001       00401 MOVLW  01
0081 1283       00402 BCF    03.5
0082 00A0       00403 MOVWF  20
0083 2818       00404 GOTO   018
0084 01A6       00405 CLRF   26
0085 0821       00406 MOVF   21,W
0086 00A5       00407 MOVWF  25
                00408 .................... 		output_toggle(pin_b2); 
0087 1683       00409 BSF    03.5
0088 1106       00410 BCF    06.2
0089 3004       00411 MOVLW  04
008A 1283       00412 BCF    03.5
008B 0686       00413 XORWF  06,F
                00414 .................... 		for(i=0; i<10;i++){ 
008C 01A7       00415 CLRF   27
008D 0827       00416 MOVF   27,W
008E 3C09       00417 SUBLW  09
008F 1C03       00418 BTFSS  03.0
0090 28BE       00419 GOTO   0BE
                00420 .................... 		OUTPUT_HIGH(PIN_B5);	 
0091 1683       00421 BSF    03.5
0092 1286       00422 BCF    06.5
0093 1283       00423 BCF    03.5
0094 1686       00424 BSF    06.5
                00425 .................... 		delay_us(T1); 
0095 0826       00426 MOVF   26,W
0096 00A8       00427 MOVWF  28
0097 0AA8       00428 INCF   28,F
0098 03A8       00429 DECF   28,F
0099 1903       00430 BTFSC  03.2
009A 289F       00431 GOTO   09F
009B 30FF       00432 MOVLW  FF
009C 00AB       00433 MOVWF  2B
009D 2041       00434 CALL   041
009E 2898       00435 GOTO   098
009F 0825       00436 MOVF   25,W
00A0 00AB       00437 MOVWF  2B
00A1 2041       00438 CALL   041
                00439 .................... 		OUTPUT_LOW(PIN_B5); 
00A2 1683       00440 BSF    03.5
00A3 1286       00441 BCF    06.5
00A4 1283       00442 BCF    03.5
00A5 1286       00443 BCF    06.5
                00444 .................... 		delay_us(20000-T1); 
00A6 0825       00445 MOVF   25,W
00A7 3C20       00446 SUBLW  20
00A8 00A8       00447 MOVWF  28
00A9 304E       00448 MOVLW  4E
00AA 00A9       00449 MOVWF  29
00AB 0826       00450 MOVF   26,W
00AC 1C03       00451 BTFSS  03.0
00AD 0F26       00452 INCFSZ 26,W
00AE 02A9       00453 SUBWF  29,F
00AF 0829       00454 MOVF   29,W
00B0 00AA       00455 MOVWF  2A
00B1 0AAA       00456 INCF   2A,F
00B2 03AA       00457 DECF   2A,F
00B3 1903       00458 BTFSC  03.2
00B4 28B9       00459 GOTO   0B9
00B5 30FF       00460 MOVLW  FF
00B6 00AB       00461 MOVWF  2B
00B7 2041       00462 CALL   041
00B8 28B2       00463 GOTO   0B2
00B9 0828       00464 MOVF   28,W
00BA 00AB       00465 MOVWF  2B
00BB 2041       00466 CALL   041
                00467 .................... 		} 
00BC 0AA7       00468 INCF   27,F
00BD 288D       00469 GOTO   08D
                00470 .................... 	} 
00BE 1683       00471 BSF    03.5
00BF 2880       00472 GOTO   080
                00473 .................... } 
00C0 0063       0474 SLEEP

Configuration Fuses:
   Word  1: 3F71   XT NOWDT PUT NOPROTECT NODEBUG BROWNOUT NOLVP NOCPD NOWRT

SYMBOL TABLE
  LABEL                             VALUE

salida                            00000000
apagado                           00000000
port_a                            00000005
port_b                            00000006
PSP_DATA                          00000008
CCP_1                             00000015
CCP_1_LOW                         00000015
CCP_1_HIGH                        00000016
_RETURN_                          00000021
main.T1                           00000025
main.i                            00000027
entrada                           000000FF
Allocation:                       0000EEEF
main                              00000054
Memory space:                     0000EEEF
Memory space:                     0000EEEF

MEMORY USAGE
