:1000000000308A0082280000253084008313000815
:10001000031918280130F800F701F70B0D28F80B29
:100020000C284A30F700F70B13281628800B0A28F3
:10003000080020302407840083138C1E1D281A0812
:10004000800021302407840083138C1E25281A0881
:100050008000B7280830F80000008611831686114A
:1000600000008312A80D0612031C392883160616F9
:10007000831203183E2883160612831283168615F0
:100080008312861D4128F80B2C2800008611831648
:100090008611000006160000000086158312861DDA
:1000A0004F28F8010000061A78148611831686116D
:1000B0008312061283160612831208008316061690
:1000C0000000861500008312061283160612000037
:1000D000831286118316861183122608A8002A200F
:1000E0002708A8002A20831606120000861583120E
:1000F000861D782800007C28000083160616000064
:100100008312CF28840183131F308305193083168F
:100110009900A63098009030831298000130A20018
:1001200007309F0000306600831686128312861601
:100130000430A400FA30A5000420A40B9A288316EA
:100140008612831286120430A400FA30A50004201F
:10015000A40BA528A301220823020318B92883169B
:1001600086122030831286062308A4001928A30AC9
:10017000AB28A301220823020318D128203023072B
:10018000840083130008A400213023078400831314
:100190000008A5002408A6002508A7005E28A30AD9
:0601A000BA28AA28630042
:02400E00613F10
:00000001FF
;PIC16F628A
;CRC=881E  CREATED="23-Ago-14 21:08"
