:1000000000308A0076280000FF00030E8301A10063
:100010000A08A0008A010408A2007708A300780853
:10002000A4007908A5007A08A600831383128C30F7
:100030008400801D1D288C192E2822088400230886
:10004000F7002408F8002508F9002608FA0020081F
:100050008A00210E8300FF0E7F0E09008A110A120A
:10006000312814138C1D322813081416AB01AA0072
:100070002A0DF9002B0DFA00F90DFA0DFC30F905E7
:100080007908D43EA8007A08A90003300318043088
:10009000A9078C118A110A121D282D3084008313A0
:1000A0000008031961280130F800F701F70B562802
:1000B000F80B55284A30F700F70B5C285F28800BB7
:1000C000532808001230AF02031C75282F3084001B
:1000D0008313FC3080050310800C800C000803198A
:1000E000752873280000800B722808008401831390
:1000F0001F308305A715270883168700831227164C
:10010000270883168700A0309300363083129400AE
:10011000831611141F149F141F159F1107309C0084
:10012000FF308312A700C0308B0483168C150008A3
:100130008600831286018617831686130430831285
:10014000AC00FA30AD004D20AC0BA128861383160D
:10015000861304308312AC00FA30AD004D20AC0B96
:10016000AC288617831686130613831206132908F4
:10017000AC00AC0AAC030319C128FF30AF00622009
:10018000BA282808AF0062208316061383120617C8
:100190002808BC3CAC004D30AD002908031C290FD9
:1001A000AD022D08AE00AE0AAE030319DB28FF3006
:1001B000AF006220D4282C08AF0062208316B42838
:0201C0006300DA
:02400E00713F00
:00000001FF
;PIC16F876A
;CRC=AED8  CREATED="24-Ago-14 15:08"
