:020000040000FA
:10000000000002284E30FE000130FF00803000006A
:1000100000002D210000000083120317A1007F08BB
:10002000A0005030A2000130A30083120317200863
:10003000A4002108A500FF30A007031CA103240889
:10004000250403199A2804302207A400A501A50D50
:100050002308A5072408FE002508FF0080300000C3
:1000600000002D210000000083120317A7007F0865
:10007000A6002208FE002308FF00803000000000D8
:100080002D210000000083120317A900A5007F089E
:10009000A800A40002302207A400A501A50D230892
:1000A000A5072408FE002508FF008030000000009E
:1000B0002D210000000083120317A500AB007F086C
:1000C000A400AA00831203172608AA002708AB0081
:1000D000FF30A607031CA7032A082B040319932843
:1000E0002808FE002908FF008030000000001A21C7
:1000F0000000000083120317AA00240883120313D0
:100100008400831383120317251883172A08831288
:100110000313800083120317A80A0319A90AA40A6B
:100120000319A50A6228063083120317A2070318D1
:10013000A30A1528000000009E2808008316031358
:10014000850101308312031385001030FF00273032
:10015000B2208312031385011030FF002730B22034
:10016000A128080083120317AD007F08AC00AE0180
:10017000AF01831203172D082F02031DC1282C087D
:100180002E020318C92883120317AE0A0319AF0AF7
:10019000B92883120317AE01AF01831203172D088C
:1001A0002F02031DD5282C082E020318DD288312E8
:1001B0000317AE0A0319AF0ACD2883120317AE0145
:1001C000AF01831203172D082F02031DE9282C0805
:1001D0002E020318F12883120317AE0A0319AF0A7F
:1001E000E12883120317AE01AF01831203172D0814
:1001F0002F02031DFD282C082E0203180529831247
:100200000317AE0A0319AF0AF52883120317AE01CC
:10021000AF01831203172D082F02031D11292C088B
:100220002E020318192983120317AE0A0319AF0A05
:1002300009290800003A03192129803A03192829BD
:1002400000347E08840083137F1883170008080099
:100250007F088A007E0882000800003A03193529C9
:10026000803A03193F29FF0100347E08840083137C
:100270007F1883170008FF00840A000808000000A8
:1002800000002821FD00FE0FFF03FF0A0000000010
:100290002821FC007D08FF007C08080001340034A0
:0E02A00056340134303401340134003400345B
:02400E00182177
:00000001FF
