:1000000000308A00E72A00000A108A100A118207CD
:1000100028340C34013406340A108A100A1182077D
:100020004D344F3444344F342034413455345434F7
:100030004F344D3441345434493443344F34003414
:100040000A108A100A1182074D344F3444344F3459
:1000500020344D3441344E34553441344C34203402
:1000600020342034203400340A108A100A11820708
:100070000A3454346134783461343A3420342534C9
:10008000303434346C3475340034F03083168600E8
:10009000831206150000061400000608060E0F392C
:1000A000B90006100000061400000608060E0F39FD
:1000B000B80006100030831686008312390EF70050
:1000C000F030F70577083804F8008A110A12792809
:1000D000390EF039F7000F3006057704860000006E
:1000E00006140000000006100034C830B700861067
:1000F00045287808B800B81F86281030F700F70B9D
:100100007F280000B70B852886287828B508031DAE
:100110008B2886108C28861400000611000006101B
:10012000360EB8000F30B8053808B9006820360818
:100130000F39B800B90068200034320BA028A3287A
:100140004030B300A428B30101303102B3073308B3
:100150008038B400B5013408B60075200034831629
:1001600008148312081CA010831688148312881C9C
:100170002011831608158312081DA01183168815F7
:100180008312881D2012831608168312081EA012DF
:10019000831688168312881E20138316081783126D
:1001A000081FA013831688178312881F2110403060
:1001B0002802F83E03185629083E592983160814C8
:1001C0008312081CEA28A018EA28A0140130F800BD
:1001D0005829ED280030F800582983168814831216
:1001E000881CF9282019F92820150130F800582911
:1001F000FC280030F8005829831608158312081DC2
:100200000829A0190829A0150130F80058290B2940
:100210000030F8005829831688158312881D172985
:10022000201A172920160130F80058291A29003001
:10023000F8005829831608168312081E2629A01ACA
:100240002629A0160130F800582929290030F80085
:100250005829831688168312881E3529201B3529B4
:1002600020170130F800582938290030F8005829A3
:10027000831608178312081F4429A01B4429A017BE
:100280000130F800582947290030F8005829831612
:1002900088178312881F53292118532921140130EC
:1002A000F800582956290030F80058290030F80085
:1002B00000340A148A100A118207DE28ED28FC286F
:1002C0000B291A29292938294729323084000008A6
:1002D000031979290130F800F701F70B6D29F80BA4
:1002E0006C294A30F700F70B732900000000800BDF
:1002F0006A290034003083168800831288010000C8
:1003000000004030A800AF20F80803198929013007
:10031000A2064130A800AF20F80803199129023045
:10032000A2064230A800AF20F8080319992904302A
:10033000A2064330A800AF20F8080319A12908300D
:10034000A2064430A800AF20F8080319A9291030EC
:10035000A2064530A800AF20F8080319B1292030C3
:10036000A2064630A800AF20F8080319B92940308A
:10037000A2064730A800AF20F8080319C129803031
:10038000A2060030831688008312220888000130FC
:10039000B200652140302702F83E0318212A083EAA
:1003A000262A22080139003A031DD8290030D9290C
:1003B0000130F800232A22080239003A031DE229FD
:1003C0000030E3290130F800232A22080439003ADA
:1003D000031DEC290030ED290130F800232A220802
:1003E0000839003A031DF6290030F7290130F800DA
:1003F000232A22081039003A031D002A0030012A5E
:100400000130F800232A22082039003A031D0A2A65
:1004100000300B2A0130F800232A22084039003A24
:10042000031D142A0030152A0130F800232A22085F
:100430008039003A031D1E2A00301F2A0130F800BF
:10044000232A0030F8008A110A121C2B0A108A1481
:100450000A118207D129DB29E529EF29F929032A85
:100460000D2A172A00308316860083128610061183
:1004700006100F30B20065210130B1003108033C95
:10048000031C4A2A0330B90068200530B2006521F8
:10049000B10A3E2A0230B9006820B1013108033C9C
:1004A000031C5B2A31080420B200B5013208B600F3
:1004B0007520B10A4E2A20148A110A12852A201C9E
:1004C000322A30080C3A03196C2A063A0319742AA6
:1004D000023A03197A2A7F2AB5010130B600752045
:1004E0000230B2006521852A0130B1000230B2002D
:1004F0009D20852AB5011030B6007520852A01306F
:10050000B5003008B6007520852A00340408AF0015
:10051000290EF038AB00AB07E23EAC00323EAE0035
:1005200029080F39AC07AC07AE07E93EAD00AD07AF
:10053000AD07280E0F39AD07AE07AD0DAE0DAE09F4
:10054000AE0D28080F39AE07AB0D0730AA000A30F0
:10055000AE07AD03031CA82AAD07AC03031CAC2AED
:10056000AC07AB03031CB02AAB07AA03031CB42AD5
:100570002A30840007302F0584072E300402031927
:10058000DD2A0008F700031DCB2A2F1ADB2AAF193A
:10059000CD2A2030CE2A0830AF003030F707A9012D
:1005A0000408A8007708AA007708B0005F2228088E
:1005B00084002A08F700840ABD2A0008F7003030BA
:1005C000F7077708B0005F228A110A127D2B840199
:1005D0001F308305063083169F0083122010A01061
:1005E0002011A0112012A0122013A0132110A2018B
:1005F000FF30A300A401A5012614231123088316AC
:100600008700831207110C309700A310230883166C
:100610008700831287100C309D000030F8000538E9
:100620009200FF308316920001308312B100B200B5
:100630009D204030A7007A29F808031D402BA70110
:1006400027080C2000380319292BA70AB0005F22C5
:10065000202B261C2F2BA40A0319A50A332B2408B0
:100660000319A503A403240F392B2508033C031900
:100670002610A408031D3F2BA508031926146B2B75
:10068000A70127082020003803194A2BA70AB00029
:100690005F22412B831608178312081F5C2B250845
:1006A000033C031C5C2B031D592B2408FE3C031C3C
:1006B0005C2BA40A0319A50A831688178312881FC6
:1006C0006B2BA408031D672BA50803196B2B2408AB
:1006D0000319A503A403A70127083420A70AF700DC
:1006E000B0005F2207302702031D6C2B0930840005
:1006F0002508A9002408A800862A2408FF3CA70092
:100700000330A8002508031C250FA802A80CA70C7D
:10071000A80CA70CA80C27089500A80C280C3039A9
:10072000F7001708CF39770497002508F900240847
:10073000F800F90CF80CF90CF80CF90C78089B008F
:10074000F90C790C3039F7001D08CF3977049D007A
:100750000530B20065218316142B8312231523085C
:1007600083168700831297019701A3142308831629
:0A077000870083129D019D016300C4
:00000001FF
;PIC16F877
